{
  "contracts/StreamFactory.sol": {
    "StreamFactory": {
      "abi": [
        {
          "anonymous": false,
          "inputs": [
            {
              "indexed": true,
              "internalType": "address",
              "name": "previousOwner",
              "type": "address"
            },
            {
              "indexed": true,
              "internalType": "address",
              "name": "newOwner",
              "type": "address"
            }
          ],
          "name": "OwnershipTransferred",
          "type": "event"
        },
        {
          "anonymous": false,
          "inputs": [
            {
              "indexed": false,
              "internalType": "uint256",
              "name": "",
              "type": "uint256"
            },
            {
              "indexed": false,
              "internalType": "address",
              "name": "",
              "type": "address"
            }
          ],
          "name": "StreamSchedulerCreated",
          "type": "event"
        },
        {
          "inputs": [
            {
              "internalType": "contract IConstantFlowAgreementV1",
              "name": "cfa",
              "type": "address"
            },
            {
              "internalType": "contract ISuperfluid",
              "name": "host",
              "type": "address"
            }
          ],
          "name": "createStreamScheduler",
          "outputs": [],
          "stateMutability": "nonpayable",
          "type": "function"
        },
        {
          "inputs": [],
          "name": "owner",
          "outputs": [
            {
              "internalType": "address",
              "name": "",
              "type": "address"
            }
          ],
          "stateMutability": "view",
          "type": "function"
        },
        {
          "inputs": [],
          "name": "renounceOwnership",
          "outputs": [],
          "stateMutability": "nonpayable",
          "type": "function"
        },
        {
          "inputs": [
            {
              "internalType": "address",
              "name": "newOwner",
              "type": "address"
            }
          ],
          "name": "transferOwnership",
          "outputs": [],
          "stateMutability": "nonpayable",
          "type": "function"
        }
      ],
      "evm": {
        "bytecode": {
          "linkReferences": {},
          "object": "608060405234801561001057600080fd5b5061001a3361001f565b61006f565b600080546001600160a01b038381166001600160a01b0319831681178455604051919092169283917f8be0079c531659141344cd1fd0a4f28419497f9722a3daafe3b4186f6b6457e09190a35050565b6114c58061007e6000396000f3fe608060405234801561001057600080fd5b506004361061004c5760003560e01c80635ed1593814610051578063715018a6146100665780638da5cb5b1461006e578063f2fde38b1461008d575b600080fd5b61006461005f3660046102c8565b6100a0565b005b61006461016a565b600054604080516001600160a01b039092168252519081900360200190f35b61006461009b366004610301565b61017e565b6100ae600180546001019055565b60006100b960015490565b9050600083836040516100cb906102a6565b6001600160a01b03928316815291166020820152604001604051809103906000f0801580156100fe573d6000803e3d6000fd5b5060008381526002602090815260409182902080546001600160a01b0319166001600160a01b0385169081179091558251868152918201529192507f1a0d32087744615dbebd07b47e35ac2f125a11f676f6a9bd202819ac2a3c95e7910160405180910390a150505050565b6101726101fc565b61017c6000610256565b565b6101866101fc565b6001600160a01b0381166101f05760405162461bcd60e51b815260206004820152602660248201527f4f776e61626c653a206e6577206f776e657220697320746865207a65726f206160448201526564647265737360d01b60648201526084015b60405180910390fd5b6101f981610256565b50565b6000546001600160a01b0316331461017c5760405162461bcd60e51b815260206004820181905260248201527f4f776e61626c653a2063616c6c6572206973206e6f7420746865206f776e657260448201526064016101e7565b600080546001600160a01b038381166001600160a01b0319831681178455604051919092169283917f8be0079c531659141344cd1fd0a4f28419497f9722a3daafe3b4186f6b6457e09190a35050565b61116a8061032683390190565b6001600160a01b03811681146101f957600080fd5b600080604083850312156102db57600080fd5b82356102e6816102b3565b915060208301356102f6816102b3565b809150509250929050565b60006020828403121561031357600080fd5b813561031e816102b3565b939250505056fe60806040523480156200001157600080fd5b506040516200116a3803806200116a8339810160408190526200003491620000f4565b600080546001600160a01b038085166001600160a01b03199283161783556001805491851691909216811790915560039190915562000077576200007762000133565b6000546001600160a01b031662000092576200009262000133565b604080518082019091526001600160a01b03918216808252929091166020909101819052600480546001600160a01b031990811690931790556005805490921617905562000149565b6001600160a01b0381168114620000f157600080fd5b50565b600080604083850312156200010857600080fd5b82516200011581620000db565b60208401519092506200012881620000db565b809150509250929050565b634e487b7160e01b600052600160045260246000fd5b61101180620001596000396000f3fe608060405234801561001057600080fd5b50600436106100a95760003560e01c8063b565a63811610071578063b565a63814610130578063c32f616414610143578063d3112b2e14610156578063de145d4f14610190578063dec57996146101c3578063e8772328146101e657600080fd5b8063376eb76a146100ae5780634a83b016146100c3578063660834f1146100df5780637cb4d6d7146100f2578063852e5a0a1461011d575b600080fd5b6100c16100bc366004610c00565b6101ee565b005b6100cc60035481565b6040519081526020015b60405180910390f35b6100c16100ed366004610c00565b610356565b600054610105906001600160a01b031681565b6040516001600160a01b0390911681526020016100d6565b600154610105906001600160a01b031681565b6100c161013e366004610c00565b610599565b6100c1610151366004610c00565b6107dc565b600454600554610170916001600160a01b03908116911682565b604080516001600160a01b039384168152929091166020830152016100d6565b6101b361019e366004610cd1565b60026020526000908152604090205460ff1681565b60405190151581526020016100d6565b6101b36101d1366004610cd1565b60009081526002602052604090205460ff1690565b6003546100cc565b336001600160a01b0387160361025a5760405162461bcd60e51b815260206004820152602660248201527f52656365697665722063616e6e6f74206265207468652073616d65206173207360448201526532b73232b91760d11b60648201526084015b60405180910390fd5b8315158061026757508115155b6102835760405162461bcd60e51b815260040161025190610cea565b61028f60043387610a8e565b5060016002600033898989888a6040516020016102b196959493929190610d21565b60408051808303601f190181529181528151602092830120835290820192909252016000908120805460ff19169215159290921790915560038054916102f683610d82565b9190505550336001600160a01b0316866001600160a01b03167fcaa833e8edafedfa1b6815a2cd5570d9dd4a0806a2626e9e8764eaba99bfeb838787878787604051610346959493929190610df7565b60405180910390a3505050505050565b428411801561036457508382115b8061037757508315801561037757508115155b8061038a5750831580159061038a575081155b6103a65760405162461bcd60e51b815260040161025190610cea565b600260003388888887896040516020016103c596959493929190610d21565b60408051601f198184030181529181528151602092830120835290820192909252016000205460ff1661040a5760405162461bcd60e51b815260040161025190610e38565b6004546005546040805160008152602081019091526001600160a01b03928316926339255d5b921690819063354b959090610450908b9033908e908c9060448101610e6f565b60408051601f19818403018152918152602080830180516001600160e01b031660e095861b179052815160008152908101918290529286901b6001600160e01b03191690526104a59392509060248101610ead565b6000604051808303816000875af11580156104c4573d6000803e3d6000fd5b505050506040513d6000823e601f3d908101601f191682016040526104ec9190810190610eed565b506002600033888888878960405160200161050c96959493929190610d21565b60408051601f198184030181529181528151602092830120835290820192909252016000908120805460ff19169055600380549161054983610f64565b9190505550336001600160a01b0316866001600160a01b03167f9794662a60e6820cd8767349e8de937e0690f677a7946b5ad1f8ca5bc49ada648787878787604051610346959493929190610df7565b42841180156105a757508382115b806105ba5750831580156105ba57508115155b806105cd575083158015906105cd575081155b6105e95760405162461bcd60e51b815260040161025190610cea565b6002600033888888878960405160200161060896959493929190610d21565b60408051601f198184030181529181528151602092830120835290820192909252016000205460ff1661064d5760405162461bcd60e51b815260040161025190610e38565b6004546005546040805160008152602081019091526001600160a01b03928316926339255d5b92169081906394229ecb90610693908b9033908e908c9060448101610e6f565b60408051601f19818403018152918152602080830180516001600160e01b031660e095861b179052815160008152908101918290529286901b6001600160e01b03191690526106e89392509060248101610ead565b6000604051808303816000875af1158015610707573d6000803e3d6000fd5b505050506040513d6000823e601f3d908101601f1916820160405261072f9190810190610eed565b506002600033888888878960405160200161074f96959493929190610d21565b60408051601f198184030181529181528151602092830120835290820192909252016000908120805460ff19169055600380549161078c83610f64565b9190505550336001600160a01b0316866001600160a01b03167f41410df4bf83d90c06bcb0521156090a3ee628578f54c82252a7ddd30c481bcb8787878787604051610346959493929190610df7565b4282111561083e5760405162461bcd60e51b815260206004820152602960248201527f53747265616d206f7264657220656e642074696d65206973206e6f7420696e206044820152683a3432903830b9ba1760b91b6064820152608401610251565b8160000361089d5760405162461bcd60e51b815260206004820152602660248201527f53747265616d206f7264657220656e642074696d652073686f756c64206e6f7460448201526510313290181760d11b6064820152608401610251565b600260003388888887896040516020016108bc96959493929190610d21565b60408051601f198184030181529181528151602092830120835290820192909252016000205460ff166109015760405162461bcd60e51b815260040161025190610e38565b6004546005546040805160008152602081019091526001600160a01b03928316926339255d5b9216908190634c8b181f90610945908b9033908e9060448101610f7b565b60408051601f19818403018152918152602080830180516001600160e01b031660e095861b179052815160008152908101918290529286901b6001600160e01b031916905261099a9392509060248101610ead565b6000604051808303816000875af11580156109b9573d6000803e3d6000fd5b505050506040513d6000823e601f3d908101601f191682016040526109e19190810190610eed565b5060026000338888888789604051602001610a0196959493929190610d21565b60408051601f198184030181529181528151602092830120835290820192909252016000908120805460ff191690556003805491610a3e83610f64565b9190505550336001600160a01b0316866001600160a01b03167fafffb4b541115da8c7bf51f05e4f868185815c08a30859c748966551d6efdc268787878787604051610346959493929190610df7565b825460018401546040805160008152602081019091526060926001600160a01b03908116926339255d5b92911690819063062e56ec90610ad59088908a9060448101610faf565b60408051601f19818403018152918152602080830180516001600160e01b031660e095861b179052815160008152908101918290529286901b6001600160e01b0319169052610b2a9392509060248101610ead565b6000604051808303816000875af1158015610b49573d6000803e3d6000fd5b505050506040513d6000823e601f3d908101601f19168201604052610b719190810190610eed565b949350505050565b6001600160a01b0381168114610b8e57600080fd5b50565b634e487b7160e01b600052604160045260246000fd5b604051601f8201601f1916810167ffffffffffffffff81118282101715610bd057610bd0610b91565b604052919050565b600067ffffffffffffffff821115610bf257610bf2610b91565b50601f01601f191660200190565b60008060008060008060c08789031215610c1957600080fd5b8635610c2481610b79565b95506020870135610c3481610b79565b9450604087013593506060870135600b81900b8114610c5257600080fd5b92506080870135915060a087013567ffffffffffffffff811115610c7557600080fd5b8701601f81018913610c8657600080fd5b8035610c99610c9482610bd8565b610ba7565b8181528a6020838501011115610cae57600080fd5b816020840160208301376000602083830101528093505050509295509295509295565b600060208284031215610ce357600080fd5b5035919050565b6020808252601e908201527f53747265616d2074696d652077696e646f7720697320696e76616c69642e0000604082015260600190565b6bffffffffffffffffffffffff19606097881b8116825295871b861660148201529390951b9093166028830152603c820152605c81019190915260a09190911b607c82015260880190565b634e487b7160e01b600052601160045260246000fd5b600060018201610d9457610d94610d6c565b5060010190565b60005b83811015610db6578181015183820152602001610d9e565b83811115610dc5576000848401525b50505050565b60008151808452610de3816020860160208601610d9b565b601f01601f19169290920160200192915050565b60018060a01b038616815284602082015283600b0b604082015282606082015260a060808201526000610e2d60a0830184610dcb565b979650505050505050565b6020808252601c908201527f53747265616d206f7264657220646f6573206e6f742065786973742e00000000604082015260600190565b6001600160a01b038681168252858116602083015284166040820152600b83900b606082015260a060808201819052600090610e2d90830184610dcb565b6001600160a01b0384168152606060208201819052600090610ed190830185610dcb565b8281036040840152610ee38185610dcb565b9695505050505050565b600060208284031215610eff57600080fd5b815167ffffffffffffffff811115610f1657600080fd5b8201601f81018413610f2757600080fd5b8051610f35610c9482610bd8565b818152856020838501011115610f4a57600080fd5b610f5b826020830160208601610d9b565b95945050505050565b600081610f7357610f73610d6c565b506000190190565b6001600160a01b038581168252848116602083015283166040820152608060608201819052600090610ee390830184610dcb565b6001600160a01b03848116825283166020820152606060408201819052600090610f5b90830184610dcb56fea2646970667358221220a94810c343dcd5d3aa97a8a2b553166aa429f24a4c0b85894af6d226e548afc564736f6c634300080d0033a2646970667358221220030aedfd02ca6398e43bc5454311dea31d22c1abb5f7e1ea7ee490f9c005ec9264736f6c634300080d0033",
          "opcodes": "PUSH1 0x80 PUSH1 0x40 MSTORE CALLVALUE DUP1 ISZERO PUSH2 0x10 JUMPI PUSH1 0x0 DUP1 REVERT JUMPDEST POP PUSH2 0x1A CALLER PUSH2 0x1F JUMP JUMPDEST PUSH2 0x6F JUMP JUMPDEST PUSH1 0x0 DUP1 SLOAD PUSH1 0x1 PUSH1 0x1 PUSH1 0xA0 SHL SUB DUP4 DUP2 AND PUSH1 0x1 PUSH1 0x1 PUSH1 0xA0 SHL SUB NOT DUP4 AND DUP2 OR DUP5 SSTORE PUSH1 0x40 MLOAD SWAP2 SWAP1 SWAP3 AND SWAP3 DUP4 SWAP2 PUSH32 0x8BE0079C531659141344CD1FD0A4F28419497F9722A3DAAFE3B4186F6B6457E0 SWAP2 SWAP1 LOG3 POP POP JUMP JUMPDEST PUSH2 0x14C5 DUP1 PUSH2 0x7E PUSH1 0x0 CODECOPY PUSH1 0x0 RETURN INVALID PUSH1 0x80 PUSH1 0x40 MSTORE CALLVALUE DUP1 ISZERO PUSH2 0x10 JUMPI PUSH1 0x0 DUP1 REVERT JUMPDEST POP PUSH1 0x4 CALLDATASIZE LT PUSH2 0x4C JUMPI PUSH1 0x0 CALLDATALOAD PUSH1 0xE0 SHR DUP1 PUSH4 0x5ED15938 EQ PUSH2 0x51 JUMPI DUP1 PUSH4 0x715018A6 EQ PUSH2 0x66 JUMPI DUP1 PUSH4 0x8DA5CB5B EQ PUSH2 0x6E JUMPI DUP1 PUSH4 0xF2FDE38B EQ PUSH2 0x8D JUMPI JUMPDEST PUSH1 0x0 DUP1 REVERT JUMPDEST PUSH2 0x64 PUSH2 0x5F CALLDATASIZE PUSH1 0x4 PUSH2 0x2C8 JUMP JUMPDEST PUSH2 0xA0 JUMP JUMPDEST STOP JUMPDEST PUSH2 0x64 PUSH2 0x16A JUMP JUMPDEST PUSH1 0x0 SLOAD PUSH1 0x40 DUP1 MLOAD PUSH1 0x1 PUSH1 0x1 PUSH1 0xA0 SHL SUB SWAP1 SWAP3 AND DUP3 MSTORE MLOAD SWAP1 DUP2 SWAP1 SUB PUSH1 0x20 ADD SWAP1 RETURN JUMPDEST PUSH2 0x64 PUSH2 0x9B CALLDATASIZE PUSH1 0x4 PUSH2 0x301 JUMP JUMPDEST PUSH2 0x17E JUMP JUMPDEST PUSH2 0xAE PUSH1 0x1 DUP1 SLOAD PUSH1 0x1 ADD SWAP1 SSTORE JUMP JUMPDEST PUSH1 0x0 PUSH2 0xB9 PUSH1 0x1 SLOAD SWAP1 JUMP JUMPDEST SWAP1 POP PUSH1 0x0 DUP4 DUP4 PUSH1 0x40 MLOAD PUSH2 0xCB SWAP1 PUSH2 0x2A6 JUMP JUMPDEST PUSH1 0x1 PUSH1 0x1 PUSH1 0xA0 SHL SUB SWAP3 DUP4 AND DUP2 MSTORE SWAP2 AND PUSH1 0x20 DUP3 ADD MSTORE PUSH1 0x40 ADD PUSH1 0x40 MLOAD DUP1 SWAP2 SUB SWAP1 PUSH1 0x0 CREATE DUP1 ISZERO DUP1 ISZERO PUSH2 0xFE JUMPI RETURNDATASIZE PUSH1 0x0 DUP1 RETURNDATACOPY RETURNDATASIZE PUSH1 0x0 REVERT JUMPDEST POP PUSH1 0x0 DUP4 DUP2 MSTORE PUSH1 0x2 PUSH1 0x20 SWAP1 DUP2 MSTORE PUSH1 0x40 SWAP2 DUP3 SWAP1 KECCAK256 DUP1 SLOAD PUSH1 0x1 PUSH1 0x1 PUSH1 0xA0 SHL SUB NOT AND PUSH1 0x1 PUSH1 0x1 PUSH1 0xA0 SHL SUB DUP6 AND SWAP1 DUP2 OR SWAP1 SWAP2 SSTORE DUP3 MLOAD DUP7 DUP2 MSTORE SWAP2 DUP3 ADD MSTORE SWAP2 SWAP3 POP PUSH32 0x1A0D32087744615DBEBD07B47E35AC2F125A11F676F6A9BD202819AC2A3C95E7 SWAP2 ADD PUSH1 0x40 MLOAD DUP1 SWAP2 SUB SWAP1 LOG1 POP POP POP POP JUMP JUMPDEST PUSH2 0x172 PUSH2 0x1FC JUMP JUMPDEST PUSH2 0x17C PUSH1 0x0 PUSH2 0x256 JUMP JUMPDEST JUMP JUMPDEST PUSH2 0x186 PUSH2 0x1FC JUMP JUMPDEST PUSH1 0x1 PUSH1 0x1 PUSH1 0xA0 SHL SUB DUP2 AND PUSH2 0x1F0 JUMPI PUSH1 0x40 MLOAD PUSH3 0x461BCD PUSH1 0xE5 SHL DUP2 MSTORE PUSH1 0x20 PUSH1 0x4 DUP3 ADD MSTORE PUSH1 0x26 PUSH1 0x24 DUP3 ADD MSTORE PUSH32 0x4F776E61626C653A206E6577206F776E657220697320746865207A65726F2061 PUSH1 0x44 DUP3 ADD MSTORE PUSH6 0x646472657373 PUSH1 0xD0 SHL PUSH1 0x64 DUP3 ADD MSTORE PUSH1 0x84 ADD JUMPDEST PUSH1 0x40 MLOAD DUP1 SWAP2 SUB SWAP1 REVERT JUMPDEST PUSH2 0x1F9 DUP2 PUSH2 0x256 JUMP JUMPDEST POP JUMP JUMPDEST PUSH1 0x0 SLOAD PUSH1 0x1 PUSH1 0x1 PUSH1 0xA0 SHL SUB AND CALLER EQ PUSH2 0x17C JUMPI PUSH1 0x40 MLOAD PUSH3 0x461BCD PUSH1 0xE5 SHL DUP2 MSTORE PUSH1 0x20 PUSH1 0x4 DUP3 ADD DUP2 SWAP1 MSTORE PUSH1 0x24 DUP3 ADD MSTORE PUSH32 0x4F776E61626C653A2063616C6C6572206973206E6F7420746865206F776E6572 PUSH1 0x44 DUP3 ADD MSTORE PUSH1 0x64 ADD PUSH2 0x1E7 JUMP JUMPDEST PUSH1 0x0 DUP1 SLOAD PUSH1 0x1 PUSH1 0x1 PUSH1 0xA0 SHL SUB DUP4 DUP2 AND PUSH1 0x1 PUSH1 0x1 PUSH1 0xA0 SHL SUB NOT DUP4 AND DUP2 OR DUP5 SSTORE PUSH1 0x40 MLOAD SWAP2 SWAP1 SWAP3 AND SWAP3 DUP4 SWAP2 PUSH32 0x8BE0079C531659141344CD1FD0A4F28419497F9722A3DAAFE3B4186F6B6457E0 SWAP2 SWAP1 LOG3 POP POP JUMP JUMPDEST PUSH2 0x116A DUP1 PUSH2 0x326 DUP4 CODECOPY ADD SWAP1 JUMP JUMPDEST PUSH1 0x1 PUSH1 0x1 PUSH1 0xA0 SHL SUB DUP2 AND DUP2 EQ PUSH2 0x1F9 JUMPI PUSH1 0x0 DUP1 REVERT JUMPDEST PUSH1 0x0 DUP1 PUSH1 0x40 DUP4 DUP6 SUB SLT ISZERO PUSH2 0x2DB JUMPI PUSH1 0x0 DUP1 REVERT JUMPDEST DUP3 CALLDATALOAD PUSH2 0x2E6 DUP2 PUSH2 0x2B3 JUMP JUMPDEST SWAP2 POP PUSH1 0x20 DUP4 ADD CALLDATALOAD PUSH2 0x2F6 DUP2 PUSH2 0x2B3 JUMP JUMPDEST DUP1 SWAP2 POP POP SWAP3 POP SWAP3 SWAP1 POP JUMP JUMPDEST PUSH1 0x0 PUSH1 0x20 DUP3 DUP5 SUB SLT ISZERO PUSH2 0x313 JUMPI PUSH1 0x0 DUP1 REVERT JUMPDEST DUP2 CALLDATALOAD PUSH2 0x31E DUP2 PUSH2 0x2B3 JUMP JUMPDEST SWAP4 SWAP3 POP POP POP JUMP INVALID PUSH1 0x80 PUSH1 0x40 MSTORE CALLVALUE DUP1 ISZERO PUSH3 0x11 JUMPI PUSH1 0x0 DUP1 REVERT JUMPDEST POP PUSH1 0x40 MLOAD PUSH3 0x116A CODESIZE SUB DUP1 PUSH3 0x116A DUP4 CODECOPY DUP2 ADD PUSH1 0x40 DUP2 SWAP1 MSTORE PUSH3 0x34 SWAP2 PUSH3 0xF4 JUMP JUMPDEST PUSH1 0x0 DUP1 SLOAD PUSH1 0x1 PUSH1 0x1 PUSH1 0xA0 SHL SUB DUP1 DUP6 AND PUSH1 0x1 PUSH1 0x1 PUSH1 0xA0 SHL SUB NOT SWAP3 DUP4 AND OR DUP4 SSTORE PUSH1 0x1 DUP1 SLOAD SWAP2 DUP6 AND SWAP2 SWAP1 SWAP3 AND DUP2 OR SWAP1 SWAP2 SSTORE PUSH1 0x3 SWAP2 SWAP1 SWAP2 SSTORE PUSH3 0x77 JUMPI PUSH3 0x77 PUSH3 0x133 JUMP JUMPDEST PUSH1 0x0 SLOAD PUSH1 0x1 PUSH1 0x1 PUSH1 0xA0 SHL SUB AND PUSH3 0x92 JUMPI PUSH3 0x92 PUSH3 0x133 JUMP JUMPDEST PUSH1 0x40 DUP1 MLOAD DUP1 DUP3 ADD SWAP1 SWAP2 MSTORE PUSH1 0x1 PUSH1 0x1 PUSH1 0xA0 SHL SUB SWAP2 DUP3 AND DUP1 DUP3 MSTORE SWAP3 SWAP1 SWAP2 AND PUSH1 0x20 SWAP1 SWAP2 ADD DUP2 SWAP1 MSTORE PUSH1 0x4 DUP1 SLOAD PUSH1 0x1 PUSH1 0x1 PUSH1 0xA0 SHL SUB NOT SWAP1 DUP2 AND SWAP1 SWAP4 OR SWAP1 SSTORE PUSH1 0x5 DUP1 SLOAD SWAP1 SWAP3 AND OR SWAP1 SSTORE PUSH3 0x149 JUMP JUMPDEST PUSH1 0x1 PUSH1 0x1 PUSH1 0xA0 SHL SUB DUP2 AND DUP2 EQ PUSH3 0xF1 JUMPI PUSH1 0x0 DUP1 REVERT JUMPDEST POP JUMP JUMPDEST PUSH1 0x0 DUP1 PUSH1 0x40 DUP4 DUP6 SUB SLT ISZERO PUSH3 0x108 JUMPI PUSH1 0x0 DUP1 REVERT JUMPDEST DUP3 MLOAD PUSH3 0x115 DUP2 PUSH3 0xDB JUMP JUMPDEST PUSH1 0x20 DUP5 ADD MLOAD SWAP1 SWAP3 POP PUSH3 0x128 DUP2 PUSH3 0xDB JUMP JUMPDEST DUP1 SWAP2 POP POP SWAP3 POP SWAP3 SWAP1 POP JUMP JUMPDEST PUSH4 0x4E487B71 PUSH1 0xE0 SHL PUSH1 0x0 MSTORE PUSH1 0x1 PUSH1 0x4 MSTORE PUSH1 0x24 PUSH1 0x0 REVERT JUMPDEST PUSH2 0x1011 DUP1 PUSH3 0x159 PUSH1 0x0 CODECOPY PUSH1 0x0 RETURN INVALID PUSH1 0x80 PUSH1 0x40 MSTORE CALLVALUE DUP1 ISZERO PUSH2 0x10 JUMPI PUSH1 0x0 DUP1 REVERT JUMPDEST POP PUSH1 0x4 CALLDATASIZE LT PUSH2 0xA9 JUMPI PUSH1 0x0 CALLDATALOAD PUSH1 0xE0 SHR DUP1 PUSH4 0xB565A638 GT PUSH2 0x71 JUMPI DUP1 PUSH4 0xB565A638 EQ PUSH2 0x130 JUMPI DUP1 PUSH4 0xC32F6164 EQ PUSH2 0x143 JUMPI DUP1 PUSH4 0xD3112B2E EQ PUSH2 0x156 JUMPI DUP1 PUSH4 0xDE145D4F EQ PUSH2 0x190 JUMPI DUP1 PUSH4 0xDEC57996 EQ PUSH2 0x1C3 JUMPI DUP1 PUSH4 0xE8772328 EQ PUSH2 0x1E6 JUMPI PUSH1 0x0 DUP1 REVERT JUMPDEST DUP1 PUSH4 0x376EB76A EQ PUSH2 0xAE JUMPI DUP1 PUSH4 0x4A83B016 EQ PUSH2 0xC3 JUMPI DUP1 PUSH4 0x660834F1 EQ PUSH2 0xDF JUMPI DUP1 PUSH4 0x7CB4D6D7 EQ PUSH2 0xF2 JUMPI DUP1 PUSH4 0x852E5A0A EQ PUSH2 0x11D JUMPI JUMPDEST PUSH1 0x0 DUP1 REVERT JUMPDEST PUSH2 0xC1 PUSH2 0xBC CALLDATASIZE PUSH1 0x4 PUSH2 0xC00 JUMP JUMPDEST PUSH2 0x1EE JUMP JUMPDEST STOP JUMPDEST PUSH2 0xCC PUSH1 0x3 SLOAD DUP2 JUMP JUMPDEST PUSH1 0x40 MLOAD SWAP1 DUP2 MSTORE PUSH1 0x20 ADD JUMPDEST PUSH1 0x40 MLOAD DUP1 SWAP2 SUB SWAP1 RETURN JUMPDEST PUSH2 0xC1 PUSH2 0xED CALLDATASIZE PUSH1 0x4 PUSH2 0xC00 JUMP JUMPDEST PUSH2 0x356 JUMP JUMPDEST PUSH1 0x0 SLOAD PUSH2 0x105 SWAP1 PUSH1 0x1 PUSH1 0x1 PUSH1 0xA0 SHL SUB AND DUP2 JUMP JUMPDEST PUSH1 0x40 MLOAD PUSH1 0x1 PUSH1 0x1 PUSH1 0xA0 SHL SUB SWAP1 SWAP2 AND DUP2 MSTORE PUSH1 0x20 ADD PUSH2 0xD6 JUMP JUMPDEST PUSH1 0x1 SLOAD PUSH2 0x105 SWAP1 PUSH1 0x1 PUSH1 0x1 PUSH1 0xA0 SHL SUB AND DUP2 JUMP JUMPDEST PUSH2 0xC1 PUSH2 0x13E CALLDATASIZE PUSH1 0x4 PUSH2 0xC00 JUMP JUMPDEST PUSH2 0x599 JUMP JUMPDEST PUSH2 0xC1 PUSH2 0x151 CALLDATASIZE PUSH1 0x4 PUSH2 0xC00 JUMP JUMPDEST PUSH2 0x7DC JUMP JUMPDEST PUSH1 0x4 SLOAD PUSH1 0x5 SLOAD PUSH2 0x170 SWAP2 PUSH1 0x1 PUSH1 0x1 PUSH1 0xA0 SHL SUB SWAP1 DUP2 AND SWAP2 AND DUP3 JUMP JUMPDEST PUSH1 0x40 DUP1 MLOAD PUSH1 0x1 PUSH1 0x1 PUSH1 0xA0 SHL SUB SWAP4 DUP5 AND DUP2 MSTORE SWAP3 SWAP1 SWAP2 AND PUSH1 0x20 DUP4 ADD MSTORE ADD PUSH2 0xD6 JUMP JUMPDEST PUSH2 0x1B3 PUSH2 0x19E CALLDATASIZE PUSH1 0x4 PUSH2 0xCD1 JUMP JUMPDEST PUSH1 0x2 PUSH1 0x20 MSTORE PUSH1 0x0 SWAP1 DUP2 MSTORE PUSH1 0x40 SWAP1 KECCAK256 SLOAD PUSH1 0xFF AND DUP2 JUMP JUMPDEST PUSH1 0x40 MLOAD SWAP1 ISZERO ISZERO DUP2 MSTORE PUSH1 0x20 ADD PUSH2 0xD6 JUMP JUMPDEST PUSH2 0x1B3 PUSH2 0x1D1 CALLDATASIZE PUSH1 0x4 PUSH2 0xCD1 JUMP JUMPDEST PUSH1 0x0 SWAP1 DUP2 MSTORE PUSH1 0x2 PUSH1 0x20 MSTORE PUSH1 0x40 SWAP1 KECCAK256 SLOAD PUSH1 0xFF AND SWAP1 JUMP JUMPDEST PUSH1 0x3 SLOAD PUSH2 0xCC JUMP JUMPDEST CALLER PUSH1 0x1 PUSH1 0x1 PUSH1 0xA0 SHL SUB DUP8 AND SUB PUSH2 0x25A JUMPI PUSH1 0x40 MLOAD PUSH3 0x461BCD PUSH1 0xE5 SHL DUP2 MSTORE PUSH1 0x20 PUSH1 0x4 DUP3 ADD MSTORE PUSH1 0x26 PUSH1 0x24 DUP3 ADD MSTORE PUSH32 0x52656365697665722063616E6E6F74206265207468652073616D652061732073 PUSH1 0x44 DUP3 ADD MSTORE PUSH6 0x32B73232B917 PUSH1 0xD1 SHL PUSH1 0x64 DUP3 ADD MSTORE PUSH1 0x84 ADD JUMPDEST PUSH1 0x40 MLOAD DUP1 SWAP2 SUB SWAP1 REVERT JUMPDEST DUP4 ISZERO ISZERO DUP1 PUSH2 0x267 JUMPI POP DUP2 ISZERO ISZERO JUMPDEST PUSH2 0x283 JUMPI PUSH1 0x40 MLOAD PUSH3 0x461BCD PUSH1 0xE5 SHL DUP2 MSTORE PUSH1 0x4 ADD PUSH2 0x251 SWAP1 PUSH2 0xCEA JUMP JUMPDEST PUSH2 0x28F PUSH1 0x4 CALLER DUP8 PUSH2 0xA8E JUMP JUMPDEST POP PUSH1 0x1 PUSH1 0x2 PUSH1 0x0 CALLER DUP10 DUP10 DUP10 DUP9 DUP11 PUSH1 0x40 MLOAD PUSH1 0x20 ADD PUSH2 0x2B1 SWAP7 SWAP6 SWAP5 SWAP4 SWAP3 SWAP2 SWAP1 PUSH2 0xD21 JUMP JUMPDEST PUSH1 0x40 DUP1 MLOAD DUP1 DUP4 SUB PUSH1 0x1F NOT ADD DUP2 MSTORE SWAP2 DUP2 MSTORE DUP2 MLOAD PUSH1 0x20 SWAP3 DUP4 ADD KECCAK256 DUP4 MSTORE SWAP1 DUP3 ADD SWAP3 SWAP1 SWAP3 MSTORE ADD PUSH1 0x0 SWAP1 DUP2 KECCAK256 DUP1 SLOAD PUSH1 0xFF NOT AND SWAP3 ISZERO ISZERO SWAP3 SWAP1 SWAP3 OR SWAP1 SWAP2 SSTORE PUSH1 0x3 DUP1 SLOAD SWAP2 PUSH2 0x2F6 DUP4 PUSH2 0xD82 JUMP JUMPDEST SWAP2 SWAP1 POP SSTORE POP CALLER PUSH1 0x1 PUSH1 0x1 PUSH1 0xA0 SHL SUB AND DUP7 PUSH1 0x1 PUSH1 0x1 PUSH1 0xA0 SHL SUB AND PUSH32 0xCAA833E8EDAFEDFA1B6815A2CD5570D9DD4A0806A2626E9E8764EABA99BFEB83 DUP8 DUP8 DUP8 DUP8 DUP8 PUSH1 0x40 MLOAD PUSH2 0x346 SWAP6 SWAP5 SWAP4 SWAP3 SWAP2 SWAP1 PUSH2 0xDF7 JUMP JUMPDEST PUSH1 0x40 MLOAD DUP1 SWAP2 SUB SWAP1 LOG3 POP POP POP POP POP POP JUMP JUMPDEST TIMESTAMP DUP5 GT DUP1 ISZERO PUSH2 0x364 JUMPI POP DUP4 DUP3 GT JUMPDEST DUP1 PUSH2 0x377 JUMPI POP DUP4 ISZERO DUP1 ISZERO PUSH2 0x377 JUMPI POP DUP2 ISZERO ISZERO JUMPDEST DUP1 PUSH2 0x38A JUMPI POP DUP4 ISZERO DUP1 ISZERO SWAP1 PUSH2 0x38A JUMPI POP DUP2 ISZERO JUMPDEST PUSH2 0x3A6 JUMPI PUSH1 0x40 MLOAD PUSH3 0x461BCD PUSH1 0xE5 SHL DUP2 MSTORE PUSH1 0x4 ADD PUSH2 0x251 SWAP1 PUSH2 0xCEA JUMP JUMPDEST PUSH1 0x2 PUSH1 0x0 CALLER DUP9 DUP9 DUP9 DUP8 DUP10 PUSH1 0x40 MLOAD PUSH1 0x20 ADD PUSH2 0x3C5 SWAP7 SWAP6 SWAP5 SWAP4 SWAP3 SWAP2 SWAP1 PUSH2 0xD21 JUMP JUMPDEST PUSH1 0x40 DUP1 MLOAD PUSH1 0x1F NOT DUP2 DUP5 SUB ADD DUP2 MSTORE SWAP2 DUP2 MSTORE DUP2 MLOAD PUSH1 0x20 SWAP3 DUP4 ADD KECCAK256 DUP4 MSTORE SWAP1 DUP3 ADD SWAP3 SWAP1 SWAP3 MSTORE ADD PUSH1 0x0 KECCAK256 SLOAD PUSH1 0xFF AND PUSH2 0x40A JUMPI PUSH1 0x40 MLOAD PUSH3 0x461BCD PUSH1 0xE5 SHL DUP2 MSTORE PUSH1 0x4 ADD PUSH2 0x251 SWAP1 PUSH2 0xE38 JUMP JUMPDEST PUSH1 0x4 SLOAD PUSH1 0x5 SLOAD PUSH1 0x40 DUP1 MLOAD PUSH1 0x0 DUP2 MSTORE PUSH1 0x20 DUP2 ADD SWAP1 SWAP2 MSTORE PUSH1 0x1 PUSH1 0x1 PUSH1 0xA0 SHL SUB SWAP3 DUP4 AND SWAP3 PUSH4 0x39255D5B SWAP3 AND SWAP1 DUP2 SWAP1 PUSH4 0x354B9590 SWAP1 PUSH2 0x450 SWAP1 DUP12 SWAP1 CALLER SWAP1 DUP15 SWAP1 DUP13 SWAP1 PUSH1 0x44 DUP2 ADD PUSH2 0xE6F JUMP JUMPDEST PUSH1 0x40 DUP1 MLOAD PUSH1 0x1F NOT DUP2 DUP5 SUB ADD DUP2 MSTORE SWAP2 DUP2 MSTORE PUSH1 0x20 DUP1 DUP4 ADD DUP1 MLOAD PUSH1 0x1 PUSH1 0x1 PUSH1 0xE0 SHL SUB AND PUSH1 0xE0 SWAP6 DUP7 SHL OR SWAP1 MSTORE DUP2 MLOAD PUSH1 0x0 DUP2 MSTORE SWAP1 DUP2 ADD SWAP2 DUP3 SWAP1 MSTORE SWAP3 DUP7 SWAP1 SHL PUSH1 0x1 PUSH1 0x1 PUSH1 0xE0 SHL SUB NOT AND SWAP1 MSTORE PUSH2 0x4A5 SWAP4 SWAP3 POP SWAP1 PUSH1 0x24 DUP2 ADD PUSH2 0xEAD JUMP JUMPDEST PUSH1 0x0 PUSH1 0x40 MLOAD DUP1 DUP4 SUB DUP2 PUSH1 0x0 DUP8 GAS CALL ISZERO DUP1 ISZERO PUSH2 0x4C4 JUMPI RETURNDATASIZE PUSH1 0x0 DUP1 RETURNDATACOPY RETURNDATASIZE PUSH1 0x0 REVERT JUMPDEST POP POP POP POP PUSH1 0x40 MLOAD RETURNDATASIZE PUSH1 0x0 DUP3 RETURNDATACOPY PUSH1 0x1F RETURNDATASIZE SWAP1 DUP2 ADD PUSH1 0x1F NOT AND DUP3 ADD PUSH1 0x40 MSTORE PUSH2 0x4EC SWAP2 SWAP1 DUP2 ADD SWAP1 PUSH2 0xEED JUMP JUMPDEST POP PUSH1 0x2 PUSH1 0x0 CALLER DUP9 DUP9 DUP9 DUP8 DUP10 PUSH1 0x40 MLOAD PUSH1 0x20 ADD PUSH2 0x50C SWAP7 SWAP6 SWAP5 SWAP4 SWAP3 SWAP2 SWAP1 PUSH2 0xD21 JUMP JUMPDEST PUSH1 0x40 DUP1 MLOAD PUSH1 0x1F NOT DUP2 DUP5 SUB ADD DUP2 MSTORE SWAP2 DUP2 MSTORE DUP2 MLOAD PUSH1 0x20 SWAP3 DUP4 ADD KECCAK256 DUP4 MSTORE SWAP1 DUP3 ADD SWAP3 SWAP1 SWAP3 MSTORE ADD PUSH1 0x0 SWAP1 DUP2 KECCAK256 DUP1 SLOAD PUSH1 0xFF NOT AND SWAP1 SSTORE PUSH1 0x3 DUP1 SLOAD SWAP2 PUSH2 0x549 DUP4 PUSH2 0xF64 JUMP JUMPDEST SWAP2 SWAP1 POP SSTORE POP CALLER PUSH1 0x1 PUSH1 0x1 PUSH1 0xA0 SHL SUB AND DUP7 PUSH1 0x1 PUSH1 0x1 PUSH1 0xA0 SHL SUB AND PUSH32 0x9794662A60E6820CD8767349E8DE937E0690F677A7946B5AD1F8CA5BC49ADA64 DUP8 DUP8 DUP8 DUP8 DUP8 PUSH1 0x40 MLOAD PUSH2 0x346 SWAP6 SWAP5 SWAP4 SWAP3 SWAP2 SWAP1 PUSH2 0xDF7 JUMP JUMPDEST TIMESTAMP DUP5 GT DUP1 ISZERO PUSH2 0x5A7 JUMPI POP DUP4 DUP3 GT JUMPDEST DUP1 PUSH2 0x5BA JUMPI POP DUP4 ISZERO DUP1 ISZERO PUSH2 0x5BA JUMPI POP DUP2 ISZERO ISZERO JUMPDEST DUP1 PUSH2 0x5CD JUMPI POP DUP4 ISZERO DUP1 ISZERO SWAP1 PUSH2 0x5CD JUMPI POP DUP2 ISZERO JUMPDEST PUSH2 0x5E9 JUMPI PUSH1 0x40 MLOAD PUSH3 0x461BCD PUSH1 0xE5 SHL DUP2 MSTORE PUSH1 0x4 ADD PUSH2 0x251 SWAP1 PUSH2 0xCEA JUMP JUMPDEST PUSH1 0x2 PUSH1 0x0 CALLER DUP9 DUP9 DUP9 DUP8 DUP10 PUSH1 0x40 MLOAD PUSH1 0x20 ADD PUSH2 0x608 SWAP7 SWAP6 SWAP5 SWAP4 SWAP3 SWAP2 SWAP1 PUSH2 0xD21 JUMP JUMPDEST PUSH1 0x40 DUP1 MLOAD PUSH1 0x1F NOT DUP2 DUP5 SUB ADD DUP2 MSTORE SWAP2 DUP2 MSTORE DUP2 MLOAD PUSH1 0x20 SWAP3 DUP4 ADD KECCAK256 DUP4 MSTORE SWAP1 DUP3 ADD SWAP3 SWAP1 SWAP3 MSTORE ADD PUSH1 0x0 KECCAK256 SLOAD PUSH1 0xFF AND PUSH2 0x64D JUMPI PUSH1 0x40 MLOAD PUSH3 0x461BCD PUSH1 0xE5 SHL DUP2 MSTORE PUSH1 0x4 ADD PUSH2 0x251 SWAP1 PUSH2 0xE38 JUMP JUMPDEST PUSH1 0x4 SLOAD PUSH1 0x5 SLOAD PUSH1 0x40 DUP1 MLOAD PUSH1 0x0 DUP2 MSTORE PUSH1 0x20 DUP2 ADD SWAP1 SWAP2 MSTORE PUSH1 0x1 PUSH1 0x1 PUSH1 0xA0 SHL SUB SWAP3 DUP4 AND SWAP3 PUSH4 0x39255D5B SWAP3 AND SWAP1 DUP2 SWAP1 PUSH4 0x94229ECB SWAP1 PUSH2 0x693 SWAP1 DUP12 SWAP1 CALLER SWAP1 DUP15 SWAP1 DUP13 SWAP1 PUSH1 0x44 DUP2 ADD PUSH2 0xE6F JUMP JUMPDEST PUSH1 0x40 DUP1 MLOAD PUSH1 0x1F NOT DUP2 DUP5 SUB ADD DUP2 MSTORE SWAP2 DUP2 MSTORE PUSH1 0x20 DUP1 DUP4 ADD DUP1 MLOAD PUSH1 0x1 PUSH1 0x1 PUSH1 0xE0 SHL SUB AND PUSH1 0xE0 SWAP6 DUP7 SHL OR SWAP1 MSTORE DUP2 MLOAD PUSH1 0x0 DUP2 MSTORE SWAP1 DUP2 ADD SWAP2 DUP3 SWAP1 MSTORE SWAP3 DUP7 SWAP1 SHL PUSH1 0x1 PUSH1 0x1 PUSH1 0xE0 SHL SUB NOT AND SWAP1 MSTORE PUSH2 0x6E8 SWAP4 SWAP3 POP SWAP1 PUSH1 0x24 DUP2 ADD PUSH2 0xEAD JUMP JUMPDEST PUSH1 0x0 PUSH1 0x40 MLOAD DUP1 DUP4 SUB DUP2 PUSH1 0x0 DUP8 GAS CALL ISZERO DUP1 ISZERO PUSH2 0x707 JUMPI RETURNDATASIZE PUSH1 0x0 DUP1 RETURNDATACOPY RETURNDATASIZE PUSH1 0x0 REVERT JUMPDEST POP POP POP POP PUSH1 0x40 MLOAD RETURNDATASIZE PUSH1 0x0 DUP3 RETURNDATACOPY PUSH1 0x1F RETURNDATASIZE SWAP1 DUP2 ADD PUSH1 0x1F NOT AND DUP3 ADD PUSH1 0x40 MSTORE PUSH2 0x72F SWAP2 SWAP1 DUP2 ADD SWAP1 PUSH2 0xEED JUMP JUMPDEST POP PUSH1 0x2 PUSH1 0x0 CALLER DUP9 DUP9 DUP9 DUP8 DUP10 PUSH1 0x40 MLOAD PUSH1 0x20 ADD PUSH2 0x74F SWAP7 SWAP6 SWAP5 SWAP4 SWAP3 SWAP2 SWAP1 PUSH2 0xD21 JUMP JUMPDEST PUSH1 0x40 DUP1 MLOAD PUSH1 0x1F NOT DUP2 DUP5 SUB ADD DUP2 MSTORE SWAP2 DUP2 MSTORE DUP2 MLOAD PUSH1 0x20 SWAP3 DUP4 ADD KECCAK256 DUP4 MSTORE SWAP1 DUP3 ADD SWAP3 SWAP1 SWAP3 MSTORE ADD PUSH1 0x0 SWAP1 DUP2 KECCAK256 DUP1 SLOAD PUSH1 0xFF NOT AND SWAP1 SSTORE PUSH1 0x3 DUP1 SLOAD SWAP2 PUSH2 0x78C DUP4 PUSH2 0xF64 JUMP JUMPDEST SWAP2 SWAP1 POP SSTORE POP CALLER PUSH1 0x1 PUSH1 0x1 PUSH1 0xA0 SHL SUB AND DUP7 PUSH1 0x1 PUSH1 0x1 PUSH1 0xA0 SHL SUB AND PUSH32 0x41410DF4BF83D90C06BCB0521156090A3EE628578F54C82252A7DDD30C481BCB DUP8 DUP8 DUP8 DUP8 DUP8 PUSH1 0x40 MLOAD PUSH2 0x346 SWAP6 SWAP5 SWAP4 SWAP3 SWAP2 SWAP1 PUSH2 0xDF7 JUMP JUMPDEST TIMESTAMP DUP3 GT ISZERO PUSH2 0x83E JUMPI PUSH1 0x40 MLOAD PUSH3 0x461BCD PUSH1 0xE5 SHL DUP2 MSTORE PUSH1 0x20 PUSH1 0x4 DUP3 ADD MSTORE PUSH1 0x29 PUSH1 0x24 DUP3 ADD MSTORE PUSH32 0x53747265616D206F7264657220656E642074696D65206973206E6F7420696E20 PUSH1 0x44 DUP3 ADD MSTORE PUSH9 0x3A3432903830B9BA17 PUSH1 0xB9 SHL PUSH1 0x64 DUP3 ADD MSTORE PUSH1 0x84 ADD PUSH2 0x251 JUMP JUMPDEST DUP2 PUSH1 0x0 SUB PUSH2 0x89D JUMPI PUSH1 0x40 MLOAD PUSH3 0x461BCD PUSH1 0xE5 SHL DUP2 MSTORE PUSH1 0x20 PUSH1 0x4 DUP3 ADD MSTORE PUSH1 0x26 PUSH1 0x24 DUP3 ADD MSTORE PUSH32 0x53747265616D206F7264657220656E642074696D652073686F756C64206E6F74 PUSH1 0x44 DUP3 ADD MSTORE PUSH6 0x103132901817 PUSH1 0xD1 SHL PUSH1 0x64 DUP3 ADD MSTORE PUSH1 0x84 ADD PUSH2 0x251 JUMP JUMPDEST PUSH1 0x2 PUSH1 0x0 CALLER DUP9 DUP9 DUP9 DUP8 DUP10 PUSH1 0x40 MLOAD PUSH1 0x20 ADD PUSH2 0x8BC SWAP7 SWAP6 SWAP5 SWAP4 SWAP3 SWAP2 SWAP1 PUSH2 0xD21 JUMP JUMPDEST PUSH1 0x40 DUP1 MLOAD PUSH1 0x1F NOT DUP2 DUP5 SUB ADD DUP2 MSTORE SWAP2 DUP2 MSTORE DUP2 MLOAD PUSH1 0x20 SWAP3 DUP4 ADD KECCAK256 DUP4 MSTORE SWAP1 DUP3 ADD SWAP3 SWAP1 SWAP3 MSTORE ADD PUSH1 0x0 KECCAK256 SLOAD PUSH1 0xFF AND PUSH2 0x901 JUMPI PUSH1 0x40 MLOAD PUSH3 0x461BCD PUSH1 0xE5 SHL DUP2 MSTORE PUSH1 0x4 ADD PUSH2 0x251 SWAP1 PUSH2 0xE38 JUMP JUMPDEST PUSH1 0x4 SLOAD PUSH1 0x5 SLOAD PUSH1 0x40 DUP1 MLOAD PUSH1 0x0 DUP2 MSTORE PUSH1 0x20 DUP2 ADD SWAP1 SWAP2 MSTORE PUSH1 0x1 PUSH1 0x1 PUSH1 0xA0 SHL SUB SWAP3 DUP4 AND SWAP3 PUSH4 0x39255D5B SWAP3 AND SWAP1 DUP2 SWAP1 PUSH4 0x4C8B181F SWAP1 PUSH2 0x945 SWAP1 DUP12 SWAP1 CALLER SWAP1 DUP15 SWAP1 PUSH1 0x44 DUP2 ADD PUSH2 0xF7B JUMP JUMPDEST PUSH1 0x40 DUP1 MLOAD PUSH1 0x1F NOT DUP2 DUP5 SUB ADD DUP2 MSTORE SWAP2 DUP2 MSTORE PUSH1 0x20 DUP1 DUP4 ADD DUP1 MLOAD PUSH1 0x1 PUSH1 0x1 PUSH1 0xE0 SHL SUB AND PUSH1 0xE0 SWAP6 DUP7 SHL OR SWAP1 MSTORE DUP2 MLOAD PUSH1 0x0 DUP2 MSTORE SWAP1 DUP2 ADD SWAP2 DUP3 SWAP1 MSTORE SWAP3 DUP7 SWAP1 SHL PUSH1 0x1 PUSH1 0x1 PUSH1 0xE0 SHL SUB NOT AND SWAP1 MSTORE PUSH2 0x99A SWAP4 SWAP3 POP SWAP1 PUSH1 0x24 DUP2 ADD PUSH2 0xEAD JUMP JUMPDEST PUSH1 0x0 PUSH1 0x40 MLOAD DUP1 DUP4 SUB DUP2 PUSH1 0x0 DUP8 GAS CALL ISZERO DUP1 ISZERO PUSH2 0x9B9 JUMPI RETURNDATASIZE PUSH1 0x0 DUP1 RETURNDATACOPY RETURNDATASIZE PUSH1 0x0 REVERT JUMPDEST POP POP POP POP PUSH1 0x40 MLOAD RETURNDATASIZE PUSH1 0x0 DUP3 RETURNDATACOPY PUSH1 0x1F RETURNDATASIZE SWAP1 DUP2 ADD PUSH1 0x1F NOT AND DUP3 ADD PUSH1 0x40 MSTORE PUSH2 0x9E1 SWAP2 SWAP1 DUP2 ADD SWAP1 PUSH2 0xEED JUMP JUMPDEST POP PUSH1 0x2 PUSH1 0x0 CALLER DUP9 DUP9 DUP9 DUP8 DUP10 PUSH1 0x40 MLOAD PUSH1 0x20 ADD PUSH2 0xA01 SWAP7 SWAP6 SWAP5 SWAP4 SWAP3 SWAP2 SWAP1 PUSH2 0xD21 JUMP JUMPDEST PUSH1 0x40 DUP1 MLOAD PUSH1 0x1F NOT DUP2 DUP5 SUB ADD DUP2 MSTORE SWAP2 DUP2 MSTORE DUP2 MLOAD PUSH1 0x20 SWAP3 DUP4 ADD KECCAK256 DUP4 MSTORE SWAP1 DUP3 ADD SWAP3 SWAP1 SWAP3 MSTORE ADD PUSH1 0x0 SWAP1 DUP2 KECCAK256 DUP1 SLOAD PUSH1 0xFF NOT AND SWAP1 SSTORE PUSH1 0x3 DUP1 SLOAD SWAP2 PUSH2 0xA3E DUP4 PUSH2 0xF64 JUMP JUMPDEST SWAP2 SWAP1 POP SSTORE POP CALLER PUSH1 0x1 PUSH1 0x1 PUSH1 0xA0 SHL SUB AND DUP7 PUSH1 0x1 PUSH1 0x1 PUSH1 0xA0 SHL SUB AND PUSH32 0xAFFFB4B541115DA8C7BF51F05E4F868185815C08A30859C748966551D6EFDC26 DUP8 DUP8 DUP8 DUP8 DUP8 PUSH1 0x40 MLOAD PUSH2 0x346 SWAP6 SWAP5 SWAP4 SWAP3 SWAP2 SWAP1 PUSH2 0xDF7 JUMP JUMPDEST DUP3 SLOAD PUSH1 0x1 DUP5 ADD SLOAD PUSH1 0x40 DUP1 MLOAD PUSH1 0x0 DUP2 MSTORE PUSH1 0x20 DUP2 ADD SWAP1 SWAP2 MSTORE PUSH1 0x60 SWAP3 PUSH1 0x1 PUSH1 0x1 PUSH1 0xA0 SHL SUB SWAP1 DUP2 AND SWAP3 PUSH4 0x39255D5B SWAP3 SWAP2 AND SWAP1 DUP2 SWAP1 PUSH4 0x62E56EC SWAP1 PUSH2 0xAD5 SWAP1 DUP9 SWAP1 DUP11 SWAP1 PUSH1 0x44 DUP2 ADD PUSH2 0xFAF JUMP JUMPDEST PUSH1 0x40 DUP1 MLOAD PUSH1 0x1F NOT DUP2 DUP5 SUB ADD DUP2 MSTORE SWAP2 DUP2 MSTORE PUSH1 0x20 DUP1 DUP4 ADD DUP1 MLOAD PUSH1 0x1 PUSH1 0x1 PUSH1 0xE0 SHL SUB AND PUSH1 0xE0 SWAP6 DUP7 SHL OR SWAP1 MSTORE DUP2 MLOAD PUSH1 0x0 DUP2 MSTORE SWAP1 DUP2 ADD SWAP2 DUP3 SWAP1 MSTORE SWAP3 DUP7 SWAP1 SHL PUSH1 0x1 PUSH1 0x1 PUSH1 0xE0 SHL SUB NOT AND SWAP1 MSTORE PUSH2 0xB2A SWAP4 SWAP3 POP SWAP1 PUSH1 0x24 DUP2 ADD PUSH2 0xEAD JUMP JUMPDEST PUSH1 0x0 PUSH1 0x40 MLOAD DUP1 DUP4 SUB DUP2 PUSH1 0x0 DUP8 GAS CALL ISZERO DUP1 ISZERO PUSH2 0xB49 JUMPI RETURNDATASIZE PUSH1 0x0 DUP1 RETURNDATACOPY RETURNDATASIZE PUSH1 0x0 REVERT JUMPDEST POP POP POP POP PUSH1 0x40 MLOAD RETURNDATASIZE PUSH1 0x0 DUP3 RETURNDATACOPY PUSH1 0x1F RETURNDATASIZE SWAP1 DUP2 ADD PUSH1 0x1F NOT AND DUP3 ADD PUSH1 0x40 MSTORE PUSH2 0xB71 SWAP2 SWAP1 DUP2 ADD SWAP1 PUSH2 0xEED JUMP JUMPDEST SWAP5 SWAP4 POP POP POP POP JUMP JUMPDEST PUSH1 0x1 PUSH1 0x1 PUSH1 0xA0 SHL SUB DUP2 AND DUP2 EQ PUSH2 0xB8E JUMPI PUSH1 0x0 DUP1 REVERT JUMPDEST POP JUMP JUMPDEST PUSH4 0x4E487B71 PUSH1 0xE0 SHL PUSH1 0x0 MSTORE PUSH1 0x41 PUSH1 0x4 MSTORE PUSH1 0x24 PUSH1 0x0 REVERT JUMPDEST PUSH1 0x40 MLOAD PUSH1 0x1F DUP3 ADD PUSH1 0x1F NOT AND DUP2 ADD PUSH8 0xFFFFFFFFFFFFFFFF DUP2 GT DUP3 DUP3 LT OR ISZERO PUSH2 0xBD0 JUMPI PUSH2 0xBD0 PUSH2 0xB91 JUMP JUMPDEST PUSH1 0x40 MSTORE SWAP2 SWAP1 POP JUMP JUMPDEST PUSH1 0x0 PUSH8 0xFFFFFFFFFFFFFFFF DUP3 GT ISZERO PUSH2 0xBF2 JUMPI PUSH2 0xBF2 PUSH2 0xB91 JUMP JUMPDEST POP PUSH1 0x1F ADD PUSH1 0x1F NOT AND PUSH1 0x20 ADD SWAP1 JUMP JUMPDEST PUSH1 0x0 DUP1 PUSH1 0x0 DUP1 PUSH1 0x0 DUP1 PUSH1 0xC0 DUP8 DUP10 SUB SLT ISZERO PUSH2 0xC19 JUMPI PUSH1 0x0 DUP1 REVERT JUMPDEST DUP7 CALLDATALOAD PUSH2 0xC24 DUP2 PUSH2 0xB79 JUMP JUMPDEST SWAP6 POP PUSH1 0x20 DUP8 ADD CALLDATALOAD PUSH2 0xC34 DUP2 PUSH2 0xB79 JUMP JUMPDEST SWAP5 POP PUSH1 0x40 DUP8 ADD CALLDATALOAD SWAP4 POP PUSH1 0x60 DUP8 ADD CALLDATALOAD PUSH1 0xB DUP2 SWAP1 SIGNEXTEND DUP2 EQ PUSH2 0xC52 JUMPI PUSH1 0x0 DUP1 REVERT JUMPDEST SWAP3 POP PUSH1 0x80 DUP8 ADD CALLDATALOAD SWAP2 POP PUSH1 0xA0 DUP8 ADD CALLDATALOAD PUSH8 0xFFFFFFFFFFFFFFFF DUP2 GT ISZERO PUSH2 0xC75 JUMPI PUSH1 0x0 DUP1 REVERT JUMPDEST DUP8 ADD PUSH1 0x1F DUP2 ADD DUP10 SGT PUSH2 0xC86 JUMPI PUSH1 0x0 DUP1 REVERT JUMPDEST DUP1 CALLDATALOAD PUSH2 0xC99 PUSH2 0xC94 DUP3 PUSH2 0xBD8 JUMP JUMPDEST PUSH2 0xBA7 JUMP JUMPDEST DUP2 DUP2 MSTORE DUP11 PUSH1 0x20 DUP4 DUP6 ADD ADD GT ISZERO PUSH2 0xCAE JUMPI PUSH1 0x0 DUP1 REVERT JUMPDEST DUP2 PUSH1 0x20 DUP5 ADD PUSH1 0x20 DUP4 ADD CALLDATACOPY PUSH1 0x0 PUSH1 0x20 DUP4 DUP4 ADD ADD MSTORE DUP1 SWAP4 POP POP POP POP SWAP3 SWAP6 POP SWAP3 SWAP6 POP SWAP3 SWAP6 JUMP JUMPDEST PUSH1 0x0 PUSH1 0x20 DUP3 DUP5 SUB SLT ISZERO PUSH2 0xCE3 JUMPI PUSH1 0x0 DUP1 REVERT JUMPDEST POP CALLDATALOAD SWAP2 SWAP1 POP JUMP JUMPDEST PUSH1 0x20 DUP1 DUP3 MSTORE PUSH1 0x1E SWAP1 DUP3 ADD MSTORE PUSH32 0x53747265616D2074696D652077696E646F7720697320696E76616C69642E0000 PUSH1 0x40 DUP3 ADD MSTORE PUSH1 0x60 ADD SWAP1 JUMP JUMPDEST PUSH12 0xFFFFFFFFFFFFFFFFFFFFFFFF NOT PUSH1 0x60 SWAP8 DUP9 SHL DUP2 AND DUP3 MSTORE SWAP6 DUP8 SHL DUP7 AND PUSH1 0x14 DUP3 ADD MSTORE SWAP4 SWAP1 SWAP6 SHL SWAP1 SWAP4 AND PUSH1 0x28 DUP4 ADD MSTORE PUSH1 0x3C DUP3 ADD MSTORE PUSH1 0x5C DUP2 ADD SWAP2 SWAP1 SWAP2 MSTORE PUSH1 0xA0 SWAP2 SWAP1 SWAP2 SHL PUSH1 0x7C DUP3 ADD MSTORE PUSH1 0x88 ADD SWAP1 JUMP JUMPDEST PUSH4 0x4E487B71 PUSH1 0xE0 SHL PUSH1 0x0 MSTORE PUSH1 0x11 PUSH1 0x4 MSTORE PUSH1 0x24 PUSH1 0x0 REVERT JUMPDEST PUSH1 0x0 PUSH1 0x1 DUP3 ADD PUSH2 0xD94 JUMPI PUSH2 0xD94 PUSH2 0xD6C JUMP JUMPDEST POP PUSH1 0x1 ADD SWAP1 JUMP JUMPDEST PUSH1 0x0 JUMPDEST DUP4 DUP2 LT ISZERO PUSH2 0xDB6 JUMPI DUP2 DUP2 ADD MLOAD DUP4 DUP3 ADD MSTORE PUSH1 0x20 ADD PUSH2 0xD9E JUMP JUMPDEST DUP4 DUP2 GT ISZERO PUSH2 0xDC5 JUMPI PUSH1 0x0 DUP5 DUP5 ADD MSTORE JUMPDEST POP POP POP POP JUMP JUMPDEST PUSH1 0x0 DUP2 MLOAD DUP1 DUP5 MSTORE PUSH2 0xDE3 DUP2 PUSH1 0x20 DUP7 ADD PUSH1 0x20 DUP7 ADD PUSH2 0xD9B JUMP JUMPDEST PUSH1 0x1F ADD PUSH1 0x1F NOT AND SWAP3 SWAP1 SWAP3 ADD PUSH1 0x20 ADD SWAP3 SWAP2 POP POP JUMP JUMPDEST PUSH1 0x1 DUP1 PUSH1 0xA0 SHL SUB DUP7 AND DUP2 MSTORE DUP5 PUSH1 0x20 DUP3 ADD MSTORE DUP4 PUSH1 0xB SIGNEXTEND PUSH1 0x40 DUP3 ADD MSTORE DUP3 PUSH1 0x60 DUP3 ADD MSTORE PUSH1 0xA0 PUSH1 0x80 DUP3 ADD MSTORE PUSH1 0x0 PUSH2 0xE2D PUSH1 0xA0 DUP4 ADD DUP5 PUSH2 0xDCB JUMP JUMPDEST SWAP8 SWAP7 POP POP POP POP POP POP POP JUMP JUMPDEST PUSH1 0x20 DUP1 DUP3 MSTORE PUSH1 0x1C SWAP1 DUP3 ADD MSTORE PUSH32 0x53747265616D206F7264657220646F6573206E6F742065786973742E00000000 PUSH1 0x40 DUP3 ADD MSTORE PUSH1 0x60 ADD SWAP1 JUMP JUMPDEST PUSH1 0x1 PUSH1 0x1 PUSH1 0xA0 SHL SUB DUP7 DUP2 AND DUP3 MSTORE DUP6 DUP2 AND PUSH1 0x20 DUP4 ADD MSTORE DUP5 AND PUSH1 0x40 DUP3 ADD MSTORE PUSH1 0xB DUP4 SWAP1 SIGNEXTEND PUSH1 0x60 DUP3 ADD MSTORE PUSH1 0xA0 PUSH1 0x80 DUP3 ADD DUP2 SWAP1 MSTORE PUSH1 0x0 SWAP1 PUSH2 0xE2D SWAP1 DUP4 ADD DUP5 PUSH2 0xDCB JUMP JUMPDEST PUSH1 0x1 PUSH1 0x1 PUSH1 0xA0 SHL SUB DUP5 AND DUP2 MSTORE PUSH1 0x60 PUSH1 0x20 DUP3 ADD DUP2 SWAP1 MSTORE PUSH1 0x0 SWAP1 PUSH2 0xED1 SWAP1 DUP4 ADD DUP6 PUSH2 0xDCB JUMP JUMPDEST DUP3 DUP2 SUB PUSH1 0x40 DUP5 ADD MSTORE PUSH2 0xEE3 DUP2 DUP6 PUSH2 0xDCB JUMP JUMPDEST SWAP7 SWAP6 POP POP POP POP POP POP JUMP JUMPDEST PUSH1 0x0 PUSH1 0x20 DUP3 DUP5 SUB SLT ISZERO PUSH2 0xEFF JUMPI PUSH1 0x0 DUP1 REVERT JUMPDEST DUP2 MLOAD PUSH8 0xFFFFFFFFFFFFFFFF DUP2 GT ISZERO PUSH2 0xF16 JUMPI PUSH1 0x0 DUP1 REVERT JUMPDEST DUP3 ADD PUSH1 0x1F DUP2 ADD DUP5 SGT PUSH2 0xF27 JUMPI PUSH1 0x0 DUP1 REVERT JUMPDEST DUP1 MLOAD PUSH2 0xF35 PUSH2 0xC94 DUP3 PUSH2 0xBD8 JUMP JUMPDEST DUP2 DUP2 MSTORE DUP6 PUSH1 0x20 DUP4 DUP6 ADD ADD GT ISZERO PUSH2 0xF4A JUMPI PUSH1 0x0 DUP1 REVERT JUMPDEST PUSH2 0xF5B DUP3 PUSH1 0x20 DUP4 ADD PUSH1 0x20 DUP7 ADD PUSH2 0xD9B JUMP JUMPDEST SWAP6 SWAP5 POP POP POP POP POP JUMP JUMPDEST PUSH1 0x0 DUP2 PUSH2 0xF73 JUMPI PUSH2 0xF73 PUSH2 0xD6C JUMP JUMPDEST POP PUSH1 0x0 NOT ADD SWAP1 JUMP JUMPDEST PUSH1 0x1 PUSH1 0x1 PUSH1 0xA0 SHL SUB DUP6 DUP2 AND DUP3 MSTORE DUP5 DUP2 AND PUSH1 0x20 DUP4 ADD MSTORE DUP4 AND PUSH1 0x40 DUP3 ADD MSTORE PUSH1 0x80 PUSH1 0x60 DUP3 ADD DUP2 SWAP1 MSTORE PUSH1 0x0 SWAP1 PUSH2 0xEE3 SWAP1 DUP4 ADD DUP5 PUSH2 0xDCB JUMP JUMPDEST PUSH1 0x1 PUSH1 0x1 PUSH1 0xA0 SHL SUB DUP5 DUP2 AND DUP3 MSTORE DUP4 AND PUSH1 0x20 DUP3 ADD MSTORE PUSH1 0x60 PUSH1 0x40 DUP3 ADD DUP2 SWAP1 MSTORE PUSH1 0x0 SWAP1 PUSH2 0xF5B SWAP1 DUP4 ADD DUP5 PUSH2 0xDCB JUMP INVALID LOG2 PUSH5 0x6970667358 0x22 SLT KECCAK256 0xA9 BASEFEE LT 0xC3 NUMBER 0xDC 0xD5 0xD3 0xAA SWAP8 0xA8 LOG2 0xB5 MSTORE8 AND PUSH11 0xA429F24A4C0B85894AF6D2 0x26 0xE5 BASEFEE 0xAF 0xC5 PUSH5 0x736F6C6343 STOP ADDMOD 0xD STOP CALLER LOG2 PUSH5 0x6970667358 0x22 SLT KECCAK256 SUB EXP 0xED REVERT MUL 0xCA PUSH4 0x98E43BC5 GASLIMIT NUMBER GT 0xDE LOG3 SAR 0x22 0xC1 0xAB 0xB5 0xF7 0xE1 0xEA PUSH31 0xE490F9C005EC9264736F6C634300080D003300000000000000000000000000 "
        },
        "methodIdentifiers": {
          "createStreamScheduler(address,address)": "5ed15938",
          "owner()": "8da5cb5b",
          "renounceOwnership()": "715018a6",
          "transferOwnership(address)": "f2fde38b"
        }
      }
    }
  }
}