{
  "_format": "hh-sol-artifact-1",
  "contractName": "StreamFactory",
  "sourceName": "contracts/StreamFactory.sol",
  "abi": [
    {
      "anonymous": false,
      "inputs": [
        {
          "indexed": true,
          "internalType": "address",
          "name": "previousOwner",
          "type": "address"
        },
        {
          "indexed": true,
          "internalType": "address",
          "name": "newOwner",
          "type": "address"
        }
      ],
      "name": "OwnershipTransferred",
      "type": "event"
    },
    {
      "anonymous": false,
      "inputs": [
        {
          "indexed": false,
          "internalType": "uint256",
          "name": "",
          "type": "uint256"
        },
        {
          "indexed": false,
          "internalType": "address",
          "name": "",
          "type": "address"
        }
      ],
      "name": "StreamSchedulerCreated",
      "type": "event"
    },
    {
      "inputs": [
        {
          "internalType": "contract IConstantFlowAgreementV1",
          "name": "cfa",
          "type": "address"
        },
        {
          "internalType": "contract ISuperfluid",
          "name": "host",
          "type": "address"
        }
      ],
      "name": "createStreamScheduler",
      "outputs": [],
      "stateMutability": "nonpayable",
      "type": "function"
    },
    {
      "inputs": [],
      "name": "owner",
      "outputs": [
        {
          "internalType": "address",
          "name": "",
          "type": "address"
        }
      ],
      "stateMutability": "view",
      "type": "function"
    },
    {
      "inputs": [],
      "name": "renounceOwnership",
      "outputs": [],
      "stateMutability": "nonpayable",
      "type": "function"
    },
    {
      "inputs": [
        {
          "internalType": "address",
          "name": "newOwner",
          "type": "address"
        }
      ],
      "name": "transferOwnership",
      "outputs": [],
      "stateMutability": "nonpayable",
      "type": "function"
    }
  ],
  "bytecode": "0x608060405234801561001057600080fd5b5061001a3361001f565b61006f565b600080546001600160a01b038381166001600160a01b0319831681178455604051919092169283917f8be0079c531659141344cd1fd0a4f28419497f9722a3daafe3b4186f6b6457e09190a35050565b6114c58061007e6000396000f3fe608060405234801561001057600080fd5b506004361061004c5760003560e01c80635ed1593814610051578063715018a6146100665780638da5cb5b1461006e578063f2fde38b1461008d575b600080fd5b61006461005f3660046102c8565b6100a0565b005b61006461016a565b600054604080516001600160a01b039092168252519081900360200190f35b61006461009b366004610301565b61017e565b6100ae600180546001019055565b60006100b960015490565b9050600083836040516100cb906102a6565b6001600160a01b03928316815291166020820152604001604051809103906000f0801580156100fe573d6000803e3d6000fd5b5060008381526002602090815260409182902080546001600160a01b0319166001600160a01b0385169081179091558251868152918201529192507f1a0d32087744615dbebd07b47e35ac2f125a11f676f6a9bd202819ac2a3c95e7910160405180910390a150505050565b6101726101fc565b61017c6000610256565b565b6101866101fc565b6001600160a01b0381166101f05760405162461bcd60e51b815260206004820152602660248201527f4f776e61626c653a206e6577206f776e657220697320746865207a65726f206160448201526564647265737360d01b60648201526084015b60405180910390fd5b6101f981610256565b50565b6000546001600160a01b0316331461017c5760405162461bcd60e51b815260206004820181905260248201527f4f776e61626c653a2063616c6c6572206973206e6f7420746865206f776e657260448201526064016101e7565b600080546001600160a01b038381166001600160a01b0319831681178455604051919092169283917f8be0079c531659141344cd1fd0a4f28419497f9722a3daafe3b4186f6b6457e09190a35050565b61116a8061032683390190565b6001600160a01b03811681146101f957600080fd5b600080604083850312156102db57600080fd5b82356102e6816102b3565b915060208301356102f6816102b3565b809150509250929050565b60006020828403121561031357600080fd5b813561031e816102b3565b939250505056fe60806040523480156200001157600080fd5b506040516200116a3803806200116a8339810160408190526200003491620000f4565b600080546001600160a01b038085166001600160a01b03199283161783556001805491851691909216811790915560039190915562000077576200007762000133565b6000546001600160a01b031662000092576200009262000133565b604080518082019091526001600160a01b03918216808252929091166020909101819052600480546001600160a01b031990811690931790556005805490921617905562000149565b6001600160a01b0381168114620000f157600080fd5b50565b600080604083850312156200010857600080fd5b82516200011581620000db565b60208401519092506200012881620000db565b809150509250929050565b634e487b7160e01b600052600160045260246000fd5b61101180620001596000396000f3fe608060405234801561001057600080fd5b50600436106100a95760003560e01c8063b565a63811610071578063b565a63814610130578063c32f616414610143578063d3112b2e14610156578063de145d4f14610190578063dec57996146101c3578063e8772328146101e657600080fd5b8063376eb76a146100ae5780634a83b016146100c3578063660834f1146100df5780637cb4d6d7146100f2578063852e5a0a1461011d575b600080fd5b6100c16100bc366004610c00565b6101ee565b005b6100cc60035481565b6040519081526020015b60405180910390f35b6100c16100ed366004610c00565b610356565b600054610105906001600160a01b031681565b6040516001600160a01b0390911681526020016100d6565b600154610105906001600160a01b031681565b6100c161013e366004610c00565b610599565b6100c1610151366004610c00565b6107dc565b600454600554610170916001600160a01b03908116911682565b604080516001600160a01b039384168152929091166020830152016100d6565b6101b361019e366004610cd1565b60026020526000908152604090205460ff1681565b60405190151581526020016100d6565b6101b36101d1366004610cd1565b60009081526002602052604090205460ff1690565b6003546100cc565b336001600160a01b0387160361025a5760405162461bcd60e51b815260206004820152602660248201527f52656365697665722063616e6e6f74206265207468652073616d65206173207360448201526532b73232b91760d11b60648201526084015b60405180910390fd5b8315158061026757508115155b6102835760405162461bcd60e51b815260040161025190610cea565b61028f60043387610a8e565b5060016002600033898989888a6040516020016102b196959493929190610d21565b60408051808303601f190181529181528151602092830120835290820192909252016000908120805460ff19169215159290921790915560038054916102f683610d82565b9190505550336001600160a01b0316866001600160a01b03167fcaa833e8edafedfa1b6815a2cd5570d9dd4a0806a2626e9e8764eaba99bfeb838787878787604051610346959493929190610df7565b60405180910390a3505050505050565b428411801561036457508382115b8061037757508315801561037757508115155b8061038a5750831580159061038a575081155b6103a65760405162461bcd60e51b815260040161025190610cea565b600260003388888887896040516020016103c596959493929190610d21565b60408051601f198184030181529181528151602092830120835290820192909252016000205460ff1661040a5760405162461bcd60e51b815260040161025190610e38565b6004546005546040805160008152602081019091526001600160a01b03928316926339255d5b921690819063354b959090610450908b9033908e908c9060448101610e6f565b60408051601f19818403018152918152602080830180516001600160e01b031660e095861b179052815160008152908101918290529286901b6001600160e01b03191690526104a59392509060248101610ead565b6000604051808303816000875af11580156104c4573d6000803e3d6000fd5b505050506040513d6000823e601f3d908101601f191682016040526104ec9190810190610eed565b506002600033888888878960405160200161050c96959493929190610d21565b60408051601f198184030181529181528151602092830120835290820192909252016000908120805460ff19169055600380549161054983610f64565b9190505550336001600160a01b0316866001600160a01b03167f9794662a60e6820cd8767349e8de937e0690f677a7946b5ad1f8ca5bc49ada648787878787604051610346959493929190610df7565b42841180156105a757508382115b806105ba5750831580156105ba57508115155b806105cd575083158015906105cd575081155b6105e95760405162461bcd60e51b815260040161025190610cea565b6002600033888888878960405160200161060896959493929190610d21565b60408051601f198184030181529181528151602092830120835290820192909252016000205460ff1661064d5760405162461bcd60e51b815260040161025190610e38565b6004546005546040805160008152602081019091526001600160a01b03928316926339255d5b92169081906394229ecb90610693908b9033908e908c9060448101610e6f565b60408051601f19818403018152918152602080830180516001600160e01b031660e095861b179052815160008152908101918290529286901b6001600160e01b03191690526106e89392509060248101610ead565b6000604051808303816000875af1158015610707573d6000803e3d6000fd5b505050506040513d6000823e601f3d908101601f1916820160405261072f9190810190610eed565b506002600033888888878960405160200161074f96959493929190610d21565b60408051601f198184030181529181528151602092830120835290820192909252016000908120805460ff19169055600380549161078c83610f64565b9190505550336001600160a01b0316866001600160a01b03167f41410df4bf83d90c06bcb0521156090a3ee628578f54c82252a7ddd30c481bcb8787878787604051610346959493929190610df7565b4282111561083e5760405162461bcd60e51b815260206004820152602960248201527f53747265616d206f7264657220656e642074696d65206973206e6f7420696e206044820152683a3432903830b9ba1760b91b6064820152608401610251565b8160000361089d5760405162461bcd60e51b815260206004820152602660248201527f53747265616d206f7264657220656e642074696d652073686f756c64206e6f7460448201526510313290181760d11b6064820152608401610251565b600260003388888887896040516020016108bc96959493929190610d21565b60408051601f198184030181529181528151602092830120835290820192909252016000205460ff166109015760405162461bcd60e51b815260040161025190610e38565b6004546005546040805160008152602081019091526001600160a01b03928316926339255d5b9216908190634c8b181f90610945908b9033908e9060448101610f7b565b60408051601f19818403018152918152602080830180516001600160e01b031660e095861b179052815160008152908101918290529286901b6001600160e01b031916905261099a9392509060248101610ead565b6000604051808303816000875af11580156109b9573d6000803e3d6000fd5b505050506040513d6000823e601f3d908101601f191682016040526109e19190810190610eed565b5060026000338888888789604051602001610a0196959493929190610d21565b60408051601f198184030181529181528151602092830120835290820192909252016000908120805460ff191690556003805491610a3e83610f64565b9190505550336001600160a01b0316866001600160a01b03167fafffb4b541115da8c7bf51f05e4f868185815c08a30859c748966551d6efdc268787878787604051610346959493929190610df7565b825460018401546040805160008152602081019091526060926001600160a01b03908116926339255d5b92911690819063062e56ec90610ad59088908a9060448101610faf565b60408051601f19818403018152918152602080830180516001600160e01b031660e095861b179052815160008152908101918290529286901b6001600160e01b0319169052610b2a9392509060248101610ead565b6000604051808303816000875af1158015610b49573d6000803e3d6000fd5b505050506040513d6000823e601f3d908101601f19168201604052610b719190810190610eed565b949350505050565b6001600160a01b0381168114610b8e57600080fd5b50565b634e487b7160e01b600052604160045260246000fd5b604051601f8201601f1916810167ffffffffffffffff81118282101715610bd057610bd0610b91565b604052919050565b600067ffffffffffffffff821115610bf257610bf2610b91565b50601f01601f191660200190565b60008060008060008060c08789031215610c1957600080fd5b8635610c2481610b79565b95506020870135610c3481610b79565b9450604087013593506060870135600b81900b8114610c5257600080fd5b92506080870135915060a087013567ffffffffffffffff811115610c7557600080fd5b8701601f81018913610c8657600080fd5b8035610c99610c9482610bd8565b610ba7565b8181528a6020838501011115610cae57600080fd5b816020840160208301376000602083830101528093505050509295509295509295565b600060208284031215610ce357600080fd5b5035919050565b6020808252601e908201527f53747265616d2074696d652077696e646f7720697320696e76616c69642e0000604082015260600190565b6bffffffffffffffffffffffff19606097881b8116825295871b861660148201529390951b9093166028830152603c820152605c81019190915260a09190911b607c82015260880190565b634e487b7160e01b600052601160045260246000fd5b600060018201610d9457610d94610d6c565b5060010190565b60005b83811015610db6578181015183820152602001610d9e565b83811115610dc5576000848401525b50505050565b60008151808452610de3816020860160208601610d9b565b601f01601f19169290920160200192915050565b60018060a01b038616815284602082015283600b0b604082015282606082015260a060808201526000610e2d60a0830184610dcb565b979650505050505050565b6020808252601c908201527f53747265616d206f7264657220646f6573206e6f742065786973742e00000000604082015260600190565b6001600160a01b038681168252858116602083015284166040820152600b83900b606082015260a060808201819052600090610e2d90830184610dcb565b6001600160a01b0384168152606060208201819052600090610ed190830185610dcb565b8281036040840152610ee38185610dcb565b9695505050505050565b600060208284031215610eff57600080fd5b815167ffffffffffffffff811115610f1657600080fd5b8201601f81018413610f2757600080fd5b8051610f35610c9482610bd8565b818152856020838501011115610f4a57600080fd5b610f5b826020830160208601610d9b565b95945050505050565b600081610f7357610f73610d6c565b506000190190565b6001600160a01b038581168252848116602083015283166040820152608060608201819052600090610ee390830184610dcb565b6001600160a01b03848116825283166020820152606060408201819052600090610f5b90830184610dcb56fea2646970667358221220a94810c343dcd5d3aa97a8a2b553166aa429f24a4c0b85894af6d226e548afc564736f6c634300080d0033a2646970667358221220030aedfd02ca6398e43bc5454311dea31d22c1abb5f7e1ea7ee490f9c005ec9264736f6c634300080d0033",
  "linkReferences": {},
  "deployedLinkReferences": {}
}